8=FIX.4.2|9=100|35=A|34=1|49=MY-INITIATOR-CLIENT1|52=20220419-18:01:05.322|56=MY-ACCEPTOR-SERVICE|98=0|108=30|141=Y|10=081|
8=FIX.4.2|9=100|35=A|34=1|49=MY-INITIATOR-CLIENT1|52=20220419-18:01:48.878|56=MY-ACCEPTOR-SERVICE|98=0|108=30|141=Y|10=104|
8=FIX.4.2|9=99|35=A|34=1|49=MY-INITIATOR-CLIENT1|52=20220419-18:01:49.877|56=MY-ACCEPTOR-SERVICE|98=0|108=5|141=Y|10=027|
8=FIX.4.2|9=99|35=A|34=1|49=MY-ACCEPTOR-SERVICE|52=20220419-18:01:49.892|56=MY-INITIATOR-CLIENT1|98=0|108=5|141=Y|10=024|
8=FIX.4.2|9=82|35=0|34=2|49=MY-ACCEPTOR-SERVICE|52=20220419-18:01:54.968|56=MY-INITIATOR-CLIENT1|10=232|
8=FIX.4.2|9=82|35=0|34=2|49=MY-INITIATOR-CLIENT1|52=20220419-18:01:54.968|56=MY-ACCEPTOR-SERVICE|10=232|
8=FIX.4.2|9=137|35=D|34=3|49=MY-INITIATOR-CLIENT1|52=20220419-18:01:58.880|56=MY-ACCEPTOR-SERVICE|11=456|21=3|40=1|54=1|55=AJCB|60=20220419-18:01:58.880|10=127|
8=FIX.4.2|9=154|35=8|34=3|49=MY-ACCEPTOR-SERVICE|52=20220419-18:01:58.895|56=MY-INITIATOR-CLIENT1|6=0|11=456|14=0|17=789|20=0|31=0|32=0|37=133456|38=56|39=0|54=1|55=AJCB|10=249|
8=FIX.4.2|9=82|35=0|34=4|49=MY-ACCEPTOR-SERVICE|52=20220419-18:02:03.971|56=MY-INITIATOR-CLIENT1|10=223|
8=FIX.4.2|9=82|35=0|34=4|49=MY-INITIATOR-CLIENT1|52=20220419-18:02:03.971|56=MY-ACCEPTOR-SERVICE|10=223|
8=FIX.4.2|9=137|35=D|34=5|49=MY-INITIATOR-CLIENT1|52=20220419-18:02:08.885|56=MY-ACCEPTOR-SERVICE|11=456|21=3|40=1|54=1|55=AJCB|60=20220419-18:02:08.885|10=131|
8=FIX.4.2|9=100|35=A|34=1|49=MY-INITIATOR-CLIENT1|52=20220419-18:02:59.090|56=MY-ACCEPTOR-SERVICE|98=0|108=30|141=Y|10=093|
8=FIX.4.2|9=99|35=A|34=1|49=MY-INITIATOR-CLIENT1|52=20220419-18:03:00.093|56=MY-ACCEPTOR-SERVICE|98=0|108=5|141=Y|10=006|
8=FIX.4.2|9=99|35=A|34=1|49=MY-ACCEPTOR-SERVICE|52=20220419-18:03:00.093|56=MY-INITIATOR-CLIENT1|98=0|108=5|141=Y|10=006|
8=FIX.4.2|9=82|35=0|34=2|49=MY-INITIATOR-CLIENT1|52=20220419-18:03:05.097|56=MY-ACCEPTOR-SERVICE|10=223|
8=FIX.4.2|9=82|35=0|34=2|49=MY-ACCEPTOR-SERVICE|52=20220419-18:03:05.097|56=MY-INITIATOR-CLIENT1|10=223|
8=FIX.4.2|9=137|35=D|34=3|49=MY-INITIATOR-CLIENT1|52=20220419-18:03:09.101|56=MY-ACCEPTOR-SERVICE|11=456|21=3|40=1|54=1|55=AJCB|60=20220419-18:03:09.101|10=095|
8=FIX.4.2|9=154|35=8|34=3|49=MY-ACCEPTOR-SERVICE|52=20220419-18:03:09.101|56=MY-INITIATOR-CLIENT1|6=0|11=456|14=0|17=789|20=0|31=0|32=0|37=133456|38=56|39=0|54=1|55=AJCB|10=227|
8=FIX.4.2|9=82|35=0|34=4|49=MY-ACCEPTOR-SERVICE|52=20220419-18:03:14.969|56=MY-INITIATOR-CLIENT1|10=233|
8=FIX.4.2|9=82|35=0|34=4|49=MY-INITIATOR-CLIENT1|52=20220419-18:03:14.969|56=MY-ACCEPTOR-SERVICE|10=233|
