8=FIX.4.2|9=99|35=A|34=1|49=MY-ACCEPTOR-SERVICE|52=20220419-18:03:00.093|56=MY-INITIATOR-CLIENT1|98=0|108=5|141=Y|10=006|8=FIX.4.2|9=82|35=0|34=2|49=MY-ACCEPTOR-SERVICE|52=20220419-18:03:05.097|56=MY-INITIATOR-CLIENT1|10=223|8=FIX.4.2|9=154|35=8|34=3|49=MY-ACCEPTOR-SERVICE|52=20220419-18:03:09.101|56=MY-INITIATOR-CLIENT1|6=0|11=456|14=0|17=789|20=0|31=0|32=0|37=133456|38=56|39=0|54=1|55=AJCB|10=227|8=FIX.4.2|9=82|35=0|34=4|49=MY-ACCEPTOR-SERVICE|52=20220419-18:03:14.969|56=MY-INITIATOR-CLIENT1|10=233|