8=FIX.4.2|9=99|35=A|34=1|49=MY-INITIATOR-CLIENT1|52=20220419-18:03:00.093|56=MY-ACCEPTOR-SERVICE|98=0|108=5|141=Y|10=006|8=FIX.4.2|9=82|35=0|34=2|49=MY-INITIATOR-CLIENT1|52=20220419-18:03:05.097|56=MY-ACCEPTOR-SERVICE|10=223|8=FIX.4.2|9=137|35=D|34=3|49=MY-INITIATOR-CLIENT1|52=20220419-18:03:09.101|56=MY-ACCEPTOR-SERVICE|11=456|21=3|40=1|54=1|55=AJCB|60=20220419-18:03:09.101|10=095|8=FIX.4.2|9=82|35=0|34=4|49=MY-INITIATOR-CLIENT1|52=20220419-18:03:14.969|56=MY-ACCEPTOR-SERVICE|10=233|